{
  "contractName": "KopiTokenSale",
  "abi": [
    {
      "inputs": [
        {
          "internalType": "uint256",
          "name": "rate",
          "type": "uint256"
        },
        {
          "internalType": "address payable",
          "name": "wallet",
          "type": "address"
        },
        {
          "internalType": "contract IERC20",
          "name": "tokenAddr",
          "type": "address"
        },
        {
          "internalType": "contract KopiKycContract",
          "name": "_kyc",
          "type": "address"
        }
      ],
      "stateMutability": "nonpayable",
      "type": "constructor"
    },
    {
      "anonymous": false,
      "inputs": [
        {
          "indexed": true,
          "internalType": "address",
          "name": "purchaser",
          "type": "address"
        },
        {
          "indexed": true,
          "internalType": "address",
          "name": "beneficiary",
          "type": "address"
        },
        {
          "indexed": false,
          "internalType": "uint256",
          "name": "value",
          "type": "uint256"
        },
        {
          "indexed": false,
          "internalType": "uint256",
          "name": "amount",
          "type": "uint256"
        }
      ],
      "name": "TokensPurchased",
      "type": "event"
    },
    {
      "inputs": [
        {
          "internalType": "address",
          "name": "beneficiary",
          "type": "address"
        }
      ],
      "name": "buyTokens",
      "outputs": [],
      "stateMutability": "payable",
      "type": "function",
      "payable": true
    },
    {
      "inputs": [],
      "name": "rate",
      "outputs": [
        {
          "internalType": "uint256",
          "name": "",
          "type": "uint256"
        }
      ],
      "stateMutability": "view",
      "type": "function",
      "constant": true
    },
    {
      "inputs": [],
      "name": "token",
      "outputs": [
        {
          "internalType": "contract IERC20",
          "name": "",
          "type": "address"
        }
      ],
      "stateMutability": "view",
      "type": "function",
      "constant": true
    },
    {
      "inputs": [],
      "name": "wallet",
      "outputs": [
        {
          "internalType": "address payable",
          "name": "",
          "type": "address"
        }
      ],
      "stateMutability": "view",
      "type": "function",
      "constant": true
    },
    {
      "inputs": [],
      "name": "weiRaised",
      "outputs": [
        {
          "internalType": "uint256",
          "name": "",
          "type": "uint256"
        }
      ],
      "stateMutability": "view",
      "type": "function",
      "constant": true
    },
    {
      "stateMutability": "payable",
      "type": "receive",
      "payable": true
    },
    {
      "inputs": [
        {
          "internalType": "address",
          "name": "beneficiary",
          "type": "address"
        }
      ],
      "name": "buyKopiToken",
      "outputs": [],
      "stateMutability": "nonpayable",
      "type": "function"
    }
  ],
  "bytecode": "0x60806040523480156200001157600080fd5b50604051620010d3380380620010d38339818101604052810190620000379190620002b3565b83838360016000806101000a81548160ff021916908315150217905550600083116200009a576040517f08c379a0000000000000000000000000000000000000000000000000000000008152600401620000919062000453565b60405180910390fd5b600073ffffffffffffffffffffffffffffffffffffffff168273ffffffffffffffffffffffffffffffffffffffff1614156200010d576040517f08c379a0000000000000000000000000000000000000000000000000000000008152600401620001049062000475565b60405180910390fd5b600073ffffffffffffffffffffffffffffffffffffffff168173ffffffffffffffffffffffffffffffffffffffff16141562000180576040517f08c379a0000000000000000000000000000000000000000000000000000000008152600401620001779062000431565b60405180910390fd5b8260028190555081600160006101000a81548173ffffffffffffffffffffffffffffffffffffffff021916908373ffffffffffffffffffffffffffffffffffffffff16021790555080600060016101000a81548173ffffffffffffffffffffffffffffffffffffffff021916908373ffffffffffffffffffffffffffffffffffffffff16021790555050505080600460006101000a81548173ffffffffffffffffffffffffffffffffffffffff021916908373ffffffffffffffffffffffffffffffffffffffff160217905550505050506200058a565b600081519050620002688162000522565b92915050565b6000815190506200027f816200053c565b92915050565b600081519050620002968162000556565b92915050565b600081519050620002ad8162000570565b92915050565b60008060008060808587031215620002ca57600080fd5b6000620002da878288016200029c565b9450506020620002ed8782880162000257565b935050604062000300878288016200026e565b9250506060620003138782880162000285565b91505092959194509250565b60006200032e60248362000497565b91507f43726f776473616c653a20746f6b656e20697320746865207a65726f2061646460008301527f72657373000000000000000000000000000000000000000000000000000000006020830152604082019050919050565b60006200039660148362000497565b91507f43726f776473616c653a207261746520697320300000000000000000000000006000830152602082019050919050565b6000620003d860258362000497565b91507f43726f776473616c653a2077616c6c657420697320746865207a65726f20616460008301527f64726573730000000000000000000000000000000000000000000000000000006020830152604082019050919050565b600060208201905081810360008301526200044c816200031f565b9050919050565b600060208201905081810360008301526200046e8162000387565b9050919050565b600060208201905081810360008301526200049081620003c9565b9050919050565b600082825260208201905092915050565b6000620004b582620004f8565b9050919050565b6000620004c982620004f8565b9050919050565b6000620004dd82620004a8565b9050919050565b6000620004f182620004a8565b9050919050565b600073ffffffffffffffffffffffffffffffffffffffff82169050919050565b6000819050919050565b6200052d81620004bc565b81146200053957600080fd5b50565b6200054781620004d0565b81146200055357600080fd5b50565b6200056181620004e4565b81146200056d57600080fd5b50565b6200057b8162000518565b81146200058757600080fd5b50565b610b39806200059a6000396000f3fe6080604052600436106100595760003560e01c80630a5e85701461006e5780632c4e722e146100975780634042b66f146100c2578063521eb273146100ed578063ec8ac4d814610118578063fc0c546a1461013457610069565b36610069576100673361015f565b005b600080fd5b34801561007a57600080fd5b5061009560048036038101906100909190610675565b6102a9565b005b3480156100a357600080fd5b506100ac6102b5565b6040516100b99190610923565b60405180910390f35b3480156100ce57600080fd5b506100d76102bf565b6040516100e49190610923565b60405180910390f35b3480156100f957600080fd5b506101026102c9565b60405161010f9190610844565b60405180910390f35b610132600480360381019061012d9190610675565b61015f565b005b34801561014057600080fd5b506101496102f3565b6040516101569190610888565b60405180910390f35b60008054906101000a900460ff166101ac576040517f08c379a00000000000000000000000000000000000000000000000000000000081526004016101a3906108e3565b60405180910390fd5b60008060006101000a81548160ff02191690831515021790555060003490506101d5828261031c565b60006101e082610414565b90506101f78260035461043290919063ffffffff16565b6003819055506102078382610448565b8273ffffffffffffffffffffffffffffffffffffffff163373ffffffffffffffffffffffffffffffffffffffff167f6faf93231a456e552dbc9961f58d9713ee4f2e69d15f1975b050ef0911053a7b848460405161026692919061093e565b60405180910390a36102788383610456565b61028061045a565b61028a83836104c5565b505060016000806101000a81548160ff02191690831515021790555050565b6102b28161015f565b50565b6000600254905090565b6000600354905090565b6000600160009054906101000a900473ffffffffffffffffffffffffffffffffffffffff16905090565b60008060019054906101000a900473ffffffffffffffffffffffffffffffffffffffff16905090565b61032682826104c9565b600460009054906101000a900473ffffffffffffffffffffffffffffffffffffffff1673ffffffffffffffffffffffffffffffffffffffff1663df235fe4336040518263ffffffff1660e01b81526004016103819190610829565b60206040518083038186803b15801561039957600080fd5b505afa1580156103ad573d6000803e3d6000fd5b505050506040513d601f19601f820116820180604052508101906103d1919061069e565b610410576040517f08c379a0000000000000000000000000000000000000000000000000000000008152600401610407906108a3565b60405180910390fd5b5050565b600061042b6002548361058190919063ffffffff16565b9050919050565b600081836104409190610978565b905092915050565b6104528282610597565b5050565b5050565b600160009054906101000a900473ffffffffffffffffffffffffffffffffffffffff1673ffffffffffffffffffffffffffffffffffffffff166108fc349081150290604051600060405180830381858888f193505050501580156104c2573d6000803e3d6000fd5b50565b5050565b600073ffffffffffffffffffffffffffffffffffffffff168273ffffffffffffffffffffffffffffffffffffffff161415610539576040517f08c379a0000000000000000000000000000000000000000000000000000000008152600401610530906108c3565b60405180910390fd5b600081141561057d576040517f08c379a000000000000000000000000000000000000000000000000000000000815260040161057490610903565b60405180910390fd5b5050565b6000818361058f91906109ce565b905092915050565b600060019054906101000a900473ffffffffffffffffffffffffffffffffffffffff1673ffffffffffffffffffffffffffffffffffffffff1663a9059cbb83836040518363ffffffff1660e01b81526004016105f492919061085f565b602060405180830381600087803b15801561060e57600080fd5b505af1158015610622573d6000803e3d6000fd5b505050506040513d601f19601f82011682018060405250810190610646919061069e565b505050565b60008135905061065a81610ad5565b92915050565b60008151905061066f81610aec565b92915050565b60006020828403121561068757600080fd5b60006106958482850161064b565b91505092915050565b6000602082840312156106b057600080fd5b60006106be84828501610660565b91505092915050565b6106d081610a3a565b82525050565b6106df81610a28565b82525050565b6106ee81610a82565b82525050565b6000610701601283610967565b91507f4b7963206e6f7420636f6d706c657465642100000000000000000000000000006000830152602082019050919050565b6000610741602a83610967565b91507f43726f776473616c653a2062656e656669636961727920697320746865207a6560008301527f726f2061646472657373000000000000000000000000000000000000000000006020830152604082019050919050565b60006107a7601f83610967565b91507f5265656e7472616e637947756172643a207265656e7472616e742063616c6c006000830152602082019050919050565b60006107e7601983610967565b91507f43726f776473616c653a20776569416d6f756e742069732030000000000000006000830152602082019050919050565b61082381610a78565b82525050565b600060208201905061083e60008301846106d6565b92915050565b600060208201905061085960008301846106c7565b92915050565b600060408201905061087460008301856106d6565b610881602083018461081a565b9392505050565b600060208201905061089d60008301846106e5565b92915050565b600060208201905081810360008301526108bc816106f4565b9050919050565b600060208201905081810360008301526108dc81610734565b9050919050565b600060208201905081810360008301526108fc8161079a565b9050919050565b6000602082019050818103600083015261091c816107da565b9050919050565b6000602082019050610938600083018461081a565b92915050565b6000604082019050610953600083018561081a565b610960602083018461081a565b9392505050565b600082825260208201905092915050565b600061098382610a78565b915061098e83610a78565b9250827fffffffffffffffffffffffffffffffffffffffffffffffffffffffffffffffff038211156109c3576109c2610aa6565b5b828201905092915050565b60006109d982610a78565b91506109e483610a78565b9250817fffffffffffffffffffffffffffffffffffffffffffffffffffffffffffffffff0483118215151615610a1d57610a1c610aa6565b5b828202905092915050565b6000610a3382610a58565b9050919050565b6000610a4582610a58565b9050919050565b60008115159050919050565b600073ffffffffffffffffffffffffffffffffffffffff82169050919050565b6000819050919050565b6000610a8d82610a94565b9050919050565b6000610a9f82610a58565b9050919050565b7f4e487b7100000000000000000000000000000000000000000000000000000000600052601160045260246000fd5b610ade81610a28565b8114610ae957600080fd5b50565b610af581610a4c565b8114610b0057600080fd5b5056fea2646970667358221220843189fa75708dc6658541537bc9956d5c44d8a767151c75b363829e972c4b5464736f6c63430008000033",
  "immutableReferences": {},
  "source": "pragma solidity ^0.8.0;\r\n\r\n\r\nimport \"../contracts/Crowdsale.sol\";\r\nimport \"../contracts/KopiKycContract.sol\";\r\n\r\n\r\n/*\r\n* @param rate Number of token units a buyer gets per wei\r\n* @dev The rate is the conversion between wei and the smallest and indivisible\r\n* token unit. So, if you are using a rate of 1 with a ERC20Detailed token\r\n* with 3 decimals called TOK, 1 wei will give you 1 unit, or 0.001 TOK.\r\n* @param wallet Address where collected funds will be forwarded to\r\n* @param token Address of the token being sold\r\n*/\r\ncontract KopiTokenSale is Crowdsale {\r\n\r\n    KopiKycContract kyc;\r\n\r\n    constructor (\r\n        uint256 rate, \r\n        address payable wallet, \r\n        IERC20 tokenAddr,\r\n        KopiKycContract _kyc\r\n    ) \r\n         Crowdsale(rate, wallet, tokenAddr) \r\n         public \r\n    {\r\n             \r\n        kyc = _kyc;\r\n\r\n    }\r\n\r\n    function buyKopiToken(address beneficiary) public {\r\n        super.buyTokens(beneficiary);\r\n    }\r\n\r\n\r\n    function _preValidatePurchase(address beneficiary, uint256 weiAmount) internal view virtual override {\r\n       super._preValidatePurchase(beneficiary, weiAmount);\r\n       require(kyc.kycCompleted(msg.sender), \"Kyc not completed!\");\r\n    }\r\n\r\n}",
  "sourcePath": "C:\\Users\\maxim\\VSCode\\Solidity\\CrowdsaleTokenProject\\contracts\\KopiTokenSale.sol",
  "compiler": {
    "name": "solc",
    "version": "0.8.0+commit.c7dfd78e.Emscripten.clang"
  },
  "schemaVersion": "3.4.7",
  "updatedAt": "2022-05-29T11:32:20.540Z",
  "networkType": "ethereum",
  "devdoc": {
    "kind": "dev",
    "methods": {
      "buyTokens(address)": {
        "details": "low level token purchase ***DO NOT OVERRIDE*** This function has a non-reentrancy guard, so it shouldn't be called by another `nonReentrant` function.",
        "params": {
          "beneficiary": "Recipient of the token purchase"
        }
      },
      "rate()": {
        "returns": {
          "_0": "the number of token units a buyer gets per wei."
        }
      },
      "token()": {
        "returns": {
          "_0": "the token being sold."
        }
      },
      "wallet()": {
        "returns": {
          "_0": "the address where funds are collected."
        }
      },
      "weiRaised()": {
        "returns": {
          "_0": "the amount of wei raised."
        }
      }
    },
    "version": 1
  },
  "userdoc": {
    "events": {
      "TokensPurchased(address,address,uint256,uint256)": {
        "notice": "Event for token purchase logging"
      }
    },
    "kind": "user",
    "methods": {},
    "version": 1
  }
}